:100000000C9449030C9471030C9471030C944110EB
:100010000C9471030C94BA100C9471030C9471033A
:100020000C9471030C9471030C9471030C94710380
:100030000C9471030C9471030C9471030C94710370
:100040000C94DF280C9471030C9483140C945D14AD
:100050000C9471030C9471030C9471030C94710350
:100060000C9471030C947103D722D722FA23B8237E
:100070007C23D722D722D7227C23B823706F7350DA
:1000800065616B006E65675065616B00706F7350E2
:1000900065616B457374006E65675065616B457390
:1000A00074006573745065616B00640069007000D2
:1000B00062656572536C6F70650064696666496E4F
:1000C00074656772616C006265657244696666009A
:1000D000C7000003BA000203B0000603AE00080226
:1000E000AC000A02AA000C02A2000E019700100147
:1000F0008C001201840014017C0016012575002279
:1001000025732200756E6B6E6F776E00302E322E67
:100110003130004E3A7B2276223A222553222C227D
:100120006E223A222553222C2273223A25642C2255
:1001300079223A25642C2262223A222563222C223B
:100140006C223A222564227D0020202020202020BD
:100150002020202020200054656D7020636F6E7475
:10016000726F6C207475726E6564206F66662069AC
:100170006E206D656E752E004368616E6765642044
:10018000746F2070726F66696C65206D6F64652096
:10019000696E206D656E752E0020202020202000C5
:1001A00025532074656D702073657420746F20254D
:1001B0007320696E204D656E752E00467269646706
:1001C000650042656572006E756C6C0022257322B5
:1001D00000537461746500526F6F6D54656D7000EB
:1001E000467269646765416E6E0046726964676550
:1001F0005365740046726964676554656D700042AA
:10020000656572416E6E00426565725365740042A9
:1002100065657254656D7000257500626565725381
:100220006C6F706546696C740062656572536C6FC3
:100230007746696C740062656572466173744669DD
:100240006C7400667269646765536C6F70654669AB
:100250006C7400667269646765536C6F7746696C8D
:1002600074006672696467654661737446696C748C
:10027000006873006C6168006D6178436F6F6C5447
:10028000696D65466F72457374006D61784865618C
:100290007454696D65466F7245737400636F6F6C5B
:1002A0005461726765744C00636F6F6C5461726760
:1002B00065744800686561745461726765744C00C8
:1002C00068656174546172676574480069646C653F
:1002D00052616E67654C0069646C6552616E67655A
:1002E0004800694D6178457272004B64004B6900AB
:1002F0004B70007069644D61780074656D70536572
:10030000744D61780074656D705365744D696E004D
:1003100074656D70466F726D617400636F6F6C45CC
:10032000737400686561744573740066726964670C
:10033000655365740062656572536574006D6F6422
:1003400065001003000405030101FA020301F30232
:100350002503F0020502ED020702EA020902E202A9
:100360000B03D7020D03CC020F03C0021103B4022A
:100370001303A80215039C0217038A0219057802C9
:100380001B0562021D0053021E0043021F003602BD
:100390002000290221001B022200740223007102A6
:1003A00024004D6F646500426565722074656D7050
:1003B0000062792074656D70657261747572652074
:1003C00070726F66696C6500696E2077656220697E
:1003D0006E74657266616365004672696467652064
:1003E00074656D700025532073657420746F20252B
:1003F000732025530066616C736500747275650027
:100400003D0300009B0C35030000BD0C2B030000D6
:10041000660C2303B204040C1B03B404040C100385
:1004200000005E0C05030F03FB0BFA021103FB0B2C
:10043000F3023303F20BF0021303040CED02150375
:10044000040CEA021703040CE2021903F20BD702B0
:100450001B03F20BCC021D03F20BC0021F03F20BB5
:10046000B4022103F20BA8022303F20B9C02250322
:10047000F20B8A022703B50B78022903B50B74022D
:100480003103760B71023203760B62020000280CF6
:1004900053020100280C43020200280C360203001C
:1004A000280C29020400280C1B020500280C00025D
:1004B0000400030001100302000003020100060013
:1004C00004000605002006050400030201002300C5
:1004D00001001302000003050400030304100305D8
:1004E0000320000000000000000023002600290077
:1004F00004040404040404040202020202020303CA
:1005000003030303010204081020408001020408D1
:1005100010200102040810202074696D65206C65AC
:10052000667400696E6720666F720057616974694E
:100530006E6720666F72207065616B005761697429
:1005400020746F2000436F6F6C0048656174004435
:100550006F6F72206F70656E0054656D702E206332
:100560006F6E74726F6C204F46460049646C0022B7
:100570002563223A256400202D2D2E2D00526F6F09
:100580006D2020004D6F646500496E76616C696472
:10059000206D6F6465002A2A2054657374696E6744
:1005A000202A2A004F66660050726F66696C6500EB
:1005B000426565722000436F6E73742E0046726947
:1005C0006467652000256468253032646D2530320B
:1005D000640000556E6B6E6F776E20737461747576
:1005E00073210022257322002564002C2256223A12
:1005F0005B006C6F674944006C6F675479706500ED
:10060000636C6F736564006F70656E65640046723D
:100610006964676520646F6F72202553004300A2F0
:1006200000DC000A800000030001000200FE9A00C6
:100630009AFF660066FF5802B00401040303040435
:10064000000000146E756C6C0025642E2530336438
:100650000025642E253032640025642E2530316457
:10066000006E756C6C0000000000240027002A005A
:1006700000000000250028002B00000000080002F8
:100680000100000304070000000000000000AF307C
:10069000AE3011241FBECFEFD8E0DEBFCDBF24E0C7
:1006A000AAE6B2E001C01D92A53CB207E1F712E054
:1006B000A0E0B1E0E4EAFDE602C005900D92AA36A2
:1006C000B107D9F713E0C8E4D3E004C02197FE01D5
:1006D0000E947931C734D107C9F70E94DA290C94F6
:1006E000C5360C94D0298091060190910701DC0158
:1006F000ED91FC910084F185E02D0994FC01878542
:1007000008950895EF92FF920F93CF93DF93CDB7A3
:10071000DEB72C970FB6F894DEBF0FBECDBF7C01BD
:10072000E091FF02F0910003E60FF11D408151813D
:10073000052E000C660B770B0CE021E0CE01019634
:100740000E941520BC01C7010E947A112C960FB699
:10075000F894DEBF0FBECDBFDF91CF910F91FF9018
:10076000EF900895EF92FF920F93CF93DF93CDB761
:10077000DEB729970FB6F894DEBF0FBECDBF7C0160
:10078000AB01770F660B770B09E022E0CE010196F3
:100790000E941520C7010E943611BE016F5F7F4F76
:1007A00086E393E00E94302929960FB6F894DEBFC5
:1007B0000FBECDBFDF91CF910F91FF90EF900895C5
:1007C000DF92EF92FF920F931F93CF93DF93CDB7FA
:1007D000DEB761970FB6F894DEBF0FBECDBF7C01C8
:1007E000D62E8E010F5F1F4FB80106960E9463132D
:1007F000D7011F96DC921F971296ED91FC911397EB
:10080000DD2061F01F930F9386851F928F9389E3FC
:1008100092E09F938F931F9289E40CC01F930F93D4
:1008200086851F928F9389E392E09F938F9382E056
:100830008F9387E58F930E9479170FB6F894DEBFE8
:100840000FBECDBF61960FB6F894DEBF0FBECDBF11
:10085000DF91CF911F910F91FF90EF90DF9008955E
:10086000EF92FF920F931F93CF93DF93FC012785A5
:10087000222309F442C08C017C01F6E0EF0EF11C4A
:10088000B701FC01848195810E949A278115F0E8C7
:100890009F0749F4F8018785882331F160E0C8019A
:1008A0000E94E00321C0F8012685EC01C20FD11D92
:1008B00027FDDA95D350BE010D2E000C880B990B45
:1008C0000E94EA1D8115FCEF9F0734F081159440CA
:1008D0002CF0CFEFD3E002C0C0E0DCEF85E0CC0F1E
:1008E000DD1F8A95E1F702C0C0E0D0E8B701F8014A
:1008F000848195810E94C72602C0C0E0D0E8CE0165
:10090000DF91CF911F910F91FF90EF90089524E414
:1009100031E0FC0131832083848195810C94233262
:10092000CF93DF93EC010E948704CE01DF91CF913A
:100930000C94233249E451E060E087E00C9495196F
:100940000E94161049E951E0682F80E00C94951937
:100950002F923F924F925F926F927F928F929F92CF
:10096000AF92BF92CF92DF92EF92FF920F931F93BD
:10097000CF93DF93CDB7DEB72D970FB6F894DEBFD8
:100980000FBECDBF1B014C875D873B872A87FC01CB
:1009900009957C01C0900F03D09010036091110362
:1009A000709112039058029718F4E12C58ECF52E30
:1009B000072E000C880B990B0E94FF1D3C01B6010D
:1009C000DD0C880B990B0E94FF1D6C01B7010F2CE9
:1009D000000C880B990B0E94FF1DA301B6010E9419
:1009E00030100E94B42828EE33E040E050E00E942E
:1009F0009436690110E038EE832E33E0932EA12C5B
:100A0000B12C4AE0442E512C612C712CC6010E945D
:100A1000A9120A9708F094C00E941E10882309F4B6
:100A200075C00E94B428A50194010E949436690102
:100A30000E941610092E000CAA0BBB0B29E0880F90
:100A4000991FAA1FBB1F2A95D1F7BC01CD016B5F6F
:100A50007F4F8F4F9F4FA30192010E942B36DA01E7
:100A6000C901E0910E03E634E9F43054410951091B
:100A700057FD02C0EDE201C0E3EDA2E3B0E00E9449
:100A80004A362E2FEE0F330B440B550B620F731F9C
:100A9000841F951F2AE530E040E050E00E942B368D
:100AA000DA01C901BC01CD017056810991090E948A
:100AB000EA1D7C01AC01602F8CE00E94741A8091C9
:100AC0000D038823D9F110920D03C701F101099597
:100AD000A701FF0C660B770B09E021E0CE01019620
:100AE0000E9415209F938F93FD85FF938C858F9394
:100AF00080EA91E09F938F93EA85FB8509950F909B
:100B00000F900F900F900F900F901AC0111106C008
:100B1000A701602F8CE00E94741A08C0103831F4CD
:100B200049E951E0602F8CE00E9495191F5F63E056
:100B300070E080E090E00E947A2868CF10E066CFF5
:100B40002D960FB6F894DEBF0FBECDBFDF91CF91CB
:100B50001F910F91FF90EF90DF90CF90BF90AF90DB
:100B60009F908F907F906F905F904F903F902F90CD
:100B700008950F931F9301E010E02CE737E042EC5B
:100B800051E066E174E28DE19DE10E94A8041F91AD
:100B90000F9108950F931F9302E010E023E537E0D3
:100BA0004BEB51E068E074E288E19DE10E94A8040B
:100BB0001F910F910895CF93DF9300D000D0CDB750
:100BC000DEB782E6898386E68A8380E78B838FE6B9
:100BD0008C830E9416108C0F9D1F60E0FC018181A8
:100BE0000F900F900F900F90DF91CF910C943A21BE
:100BF000682F86E393E00E9429296AE386E393E065
:100C00000E94292981E080930103089542E050E089
:100C10006CE372E086E393E00C9454256DE786E381
:100C200093E00E9429290C940606EF92FF920F93FD
:100C3000CF93DF93CDB7DEB72C970FB6F894DEBF16
:100C40000FBECDBF83E50E94F8058DEAE82E84E053
:100C5000F82EF70160818DE393E00E945D11F701AA
:100C600041815281052E000C660B770B0CE022E0CF
:100C7000CE0101960E941520BC0185E393E00E94FD
:100C80007A11F70143815481052E000C660B770B16
:100C900022E0CE0101960E941520BC018BE293E078
:100CA0000E947A11F70145815681052E000C660BD2
:100CB000770B23E0CE0101960E94991FBC0183E2CD
:100CC00093E00E947A11F70147815085052E000CB0
:100CD000660B770B23E0CE0101960E94991FBC01A1
:100CE0008BE193E00E947A110E940E062C960FB6BB
:100CF000F894DEBF0FBECDBFDF91CF910F91FF9073
:100D0000EF900895CF93DF93CDB7DEB79E012B5FB1
:100D10003F4FF901419151919F0160E870E08FE7E9
:100D200092E00E9447336FE772E086E393E00E940F
:100D30003029DF91CF910895CF93DF93E091FF02A7
:100D4000F0910003E60FF11DC081D1810E943611A0
:100D5000DF93CF9388E192E09F938F930E94820666
:100D60000F900F900F900F90DF91CF910895CF9338
:100D7000E091FF02F0910003E60FF11DC0810E9497
:100D800036111F92CF9388E192E09F938F930E9438
:100D900082060F900F900F900F90CF9108950F93B0
:100DA0001F93CF93DF938C01EB0184E50E94F8053C
:100DB0000E942421BC018FE092E00E94B203609166
:100DC000AE047091AF0487E092E00E94B2038FEF0F
:100DD00091E00E9436110115110519F427EC31E05C
:100DE00002C02CEC31E01F930F933F932F930E948E
:100DF00082060E940E21BC0184EF91E00E94B203A2
:100E00006091B0047091B1048AEE91E00E94B20347
:100E100080EE91E00E9436110F900F900F900F908E
:100E2000209719F487EC91E002C08CEC91E0DF93FD
:100E3000CF939F938F930E9482060E9473038091A9
:100E4000060190910701DC01ED91FC910480F58190
:100E5000E02D09950F900F900F900F9081111BC0FE
:100E6000C091B604D091B704DD2781ED91E00E94D6
:100E70003611DF93CF9388E192E09F938F930E9486
:100E800082060F900F900F900F90DF91CF911F91DE
:100E90000F910C940E060E947303BC0187ED91E044
:100EA0000E94B203DDCFCF93DF93CDB7DEB7C0583A
:100EB000D1090FB6F894DEBF0FBECDBF9E012B57F0
:100EC0003F4FF901419151919F0160E870E0CE01DF
:100ED00001960E944733BE016F5F7F4F80E090E034
:100EE0000E94CF06C058DF4F0FB6F894DEBF0FBE8A
:100EF000CDBFDF91CF910895CF93DF93CDB7DEB70C
:100F0000C058D1090FB6F894DEBF0FBECDBF9E0109
:100F10002B573F4FF901419151919F0160E870E0DB
:100F2000CE0101960E94473360E070E0CE01019649
:100F30000E94CF06C058DF4F0FB6F894DEBF0FBE39
:100F4000CDBFDF91CF9108958091AD04823611F429
:100F50000C94B905863611F40C94CA05803719F43F
:100F600088E791E004C08F3641F487E591E09F93D4
:100F70008F930E947C070F900F9008952EE332E02C
:100F80003F932F938F9389E48F930E9479170F904B
:100F90000F900F900F900895FC0190810180F281D5
:100FA000E02DF8948181892B81832281892F80957E
:100FB00028232283A7E0B0E01197F1F72181822353
:100FC0008183A3E2B0E01197F1F780817894EFEC90
:100FD000F0E03197F1F7982381E009F480E008957B
:100FE000FC019081A181B281611103C085E0E1E43F
:100FF00002C087E3EAE0F89412962C911297392FF9
:101000003095232312962C93129711962C911197B9
:10101000292B11962C93119724E0E29FF0011124C3
:1010200035973197F1F712962C911297922B1296D1
:101030009C93789424E0829FC00111240597019726
:10104000F1F70895FC0190810180F281E02DF89480
:101050008181292F20958223818378948DE743E035
:1010600050E0815021F1DA011197F1F730813923F5
:10107000C1F3F8948281822382838181892B8183C9
:101080007894ABE7B7E01197F1F7F89481812823C2
:101090002183A3E1B1E01197F1F78081982381E0EA
:1010A00009F080E07894E3E6F6E03197F1F70895EF
:1010B000CF92DF92EF92FF920F931F93CF93DF9324
:1010C0001F92CDB7DEB7F62E8C01055F1F4F65E589
:1010D000C80179830E944613CF2C7981D72E7601DF
:1010E00088E0E80EF11CF60161916F01C8010E94D1
:1010F0004613CE14DF04B9F70F90DF91CF911F9103
:101100000F91FF90EF90DF90CF900895BF92CF9214
:10111000DF92EF92FF920F931F93CF93DF93CDB7A0
:10112000DEB76A970FB6F894DEBF0FBECDBF7C0165
:101130006C0126E0C20ED11C8E010F5F1F4FB8015B
:10114000C6010E946313F70184819581892B01F503
:1011500082E090E00E948E31F70122813381FC0110
:1011600031832083F70195838483892B89F41F932E
:101170000F938AE392E09F938F931F9285E48F935E
:101180000E9479170F900F900F900F900F900F9073
:10119000F70184819581009711F410E0BAC0B6017F
:1011A0000E949A278115904809F0ACC0F70104818C
:1011B000158144EBB601C8010E94EA26F80180813E
:1011C00091810B960E94CC07B82EF8018081918105
:1011D0000E94BE26BB2009F3F801808191810E9404
:1011E000BE26B601F801808191810E945808F8015D
:1011F0008081918168EB0B960E944613AE014E5E92
:101200005F4FB601C8010E941127B82E882329F22A
:101210008E898F3721F08FE78E8B81E001C080E0CF
:101220009C89992311F01C8A02C0882389F14EE41D
:10123000B601C8010E94EA26F801808191816C897B
:101240000B960E944613F801808191816D890B965F
:101250000E944613F801808191816E890B960E944D
:101260004613F801808191810E94BE26B601F801E3
:10127000808191810E945808F8018081918168E401
:101280000B960E944613F801808191810E94BE2630
:1012900081E08C8B4EE4B601C8010E94EA26F80179
:1012A000808191816C890B960E944613F8018081A0
:1012B00091816D890B960E944613F801808191817E
:1012C0006E890B960E944613F801808191810E94DD
:1012D000BE26BB2009F461CFB601F7018481958158
:1012E0000E94C7266EEE72E080E090E00E947A28AD
:1012F000B601F701848195810E949A278115904853
:1013000009F44BCFB601F701848195810E94C7266D
:1013100011E0F7018785811721F0612FC7010E9435
:10132000E003812F6A960FB6F894DEBF0FBECDBFE3
:10133000DF91CF911F910F91FF90EF90DF90CF90B1
:10134000BF9008952F923F924F925F926F927F923B
:101350008F929F92AF92BF92CF92DF92EF92FF92C5
:101360001F93CF93DF931F92CDB7DEB76C017B0144
:101370005A0149010E94B42828EE33E040E050E0D1
:101380000E949436190110E088EE482E83E0582E12
:10139000612C712CC1010E94A9120A9768F50E9464
:1013A0001E10882351F00E94B428A30192010E94CC
:1013B00094361901F601099502C0111104C0F70114
:1013C000099510E004C0103811F4F50109958091D9
:1013D0000D03882349F010920D038983F7010995C5
:1013E000F4010995898109C01F5F63E070E080E026
:1013F00090E00E947A28CECF80E00F90DF91CF91CD
:101400001F91FF90EF90DF90CF90BF90AF909F9093
:101410008F907F906F905F904F903F902F900895A6
:10142000CF930E9416108130910521F182309105F1
:1014300051F1892B89F5C091AD046C2F8FE392E0B7
:101440000E94C12743E050E060E070E090E00E941D
:10145000301024EA37E04AE954E066E676E18BEDA5
:1014600095E00E94A209811117C060E08C2FCF91F6
:101470000C943A2160E082E60E943A210E946616AE
:10148000CF910C94B90560E086E60E943A210E9453
:101490006616CF910C94CA05CF9108958F929F92B2
:1014A000AF92BF92CF92DF92EF92FF920F931F9372
:1014B000CF93DF93EC0188819981009709F4A2C052
:1014C000DC01ED91FC910084F185E02D09958115F9
:1014D000B0E89B0709F496C06C01990FEE08FF086D
:1014E0007601DD24CC248E010E5F1F4F5E01F0E5F6
:1014F000AF0EB11CA601C701BC01C8010E943A1879
:10150000AB01065E1F4F0A151B05B1F78E0102568F
:101510001F4FB701A601C5010E943A186B017C015B
:10152000EAE1AE0EB11CA016B10699F77E01FCEE01
:10153000EF0EF11CD7018C9181508C93843071F4A3
:10154000FE01EC57FF4F84859585A685B785E75941
:10155000FF4F80839183A283B3833FC081113DC03D
:10156000FE01EC57FF4F84849584A684B7846E01F6
:10157000BDEECB0ED11CF60180819181A281B38199
:10158000A5019401281B390B4A0B5B0B4C3151050B
:101590004CF4453EFFEF5F074CF420E030E045EEB1
:1015A0005FEF04C020E030E04BE150E0A0EBB4E09E
:1015B0000E944A36AB01BC01C8010E943A18065E7F
:1015C0001F4F0E151F05B1F7D6018D929D92AD925A
:1015D000BC92139783E0F8018083888199810E94EF
:1015E000B720811117C0CE01DF91CF911F910F91CC
:1015F000FF90EF90DF90CF90BF90AF909F908F9033
:101600000C946320FE01EF50FF4F80818F3F29F340
:101610008F5FE2CFDF91CF911F910F91FF90EF90FD
:10162000DF90CF90BF90AF909F908F900895CF9212
:10163000DF92EF92FF920F931F93CF93DF9300D02F
:1016400000D000D0CDB7DEB7F82EE92ED62EC72EAB
:101650007F936F939F938F9384E492E09F938F93F4
:101660008CE08F9389E48F930E94791700E014E057
:101670000FB6F894DEBF0FBECDBF46E050E0B80114
:10168000CE0101960E94F63269817A818F2D9E2DBE
:101690000E94FF32892B41F46B817C81ED81FE81B8
:1016A0008D2D9C2D099513C00A5F1F4F94E00E3AB3
:1016B000190719F78EE392E09F938F931F9287E5A6
:1016C0008F930E9479170F900F900F900F9026968E
:1016D0000FB6F894DEBF0FBECDBFDF91CF911F9143
:1016E0000F91FF90EF90DF90CF900895CF92DF920F
:1016F000EF92FF921F93CF93DF9300D0CDB7DEB769
:101700007C016B01BC018BEF93E00E94C632892BF8
:10171000F1F0B70185EF93E00E94C632892BC9F042
:10172000BE016F5F7F4FC7010E94871D162F698121
:101730007A81C7010E94461E81110DC0123058F4F3
:10174000812F8170F60180830E948B1904C081E093
:10175000F9CF80E0F7CF0F900F90DF91CF911F91DD
:10176000FF90EF90DF90CF900895AF92BF92CF920D
:10177000DF92EF92FF920F931F93CF93DF9300D0EE
:10178000CDB7DEB75C018B01BE016F5F7F4F0E945A
:10179000871D6B017C0169817A81C5010E94461E0B
:1017A000811113C0C114D10481E0E806F10434F0C2
:1017B0008FEF9FEFF8019183808305C0F7FC05C090
:1017C000F801D182C0820E948B190F900F90DF9197
:1017D000CF911F910F91FF90EF90DF90CF90BF902E
:1017E000AF9008959C01CB01B9010E94EB1E8111BD
:1017F0000C948B1908959C01CB01B9010E94361FEE
:1018000081110C948B1908950F931F93CF93DF933D
:1018100000D000D0CDB7DEB78B01BC01CE01019660
:101820000E94561E882359F069817A818B819C81A0
:101830000E94EA1DF801918380830E948B190F900A
:101840000F900F900F90DF91CF911F910F910895FE
:101850000F931F93CF93DF938B01EB01C370DD27B1
:101860000E94CF32F801FF27EE0FFF1FE45DFE4F0D
:101870000190F081E02D6083033028F08091A50471
:101880009091A60404C08091A7049091A804C1304F
:10189000D10539F0C230D10539F0CD2B49F402968B
:1018A00005C0805B9F4F02C082569F4F0E940A195D
:1018B000DF91CF911F910F910C948B19FC018081C6
:1018C00080930E030E94551A0C948B190F931F934B
:1018D000CF93DF9300D0CDB7DEB7182F092F682F35
:1018E000792FCE0101960E94361F8823E9F080915E
:1018F000AD048636A9F488EC93E09F938F930F9301
:101900001F9389ED93E09F938F9385EE93E09F93D0
:101910008F930E9453070FB6F894DEBF0FBECDBF62
:1019200089819A810E9408240F900F90DF91CF91B6
:101930001F910F910895CF93DF93EC0160E08881B0
:101940000E943A2188EC93E09F938F93DF93CF938B
:1019500082EA93E09F938F9385EE93E09F938F931A
:101960000E9453078DB79EB708960FB6F8949EBF96
:101970000FBE8DBFDF91CF9108950F931F93CF932B
:10198000DF9300D0CDB7DEB7182F092F682F792F3E
:10199000CE0101960E94361F882399F18091AD04F3
:1019A000803799F429813A818091AE049091AF04F7
:1019B000281B390B37FF03C0319521953109253696
:1019C0003105DCF021EB33E002C028EC33E02115D7
:1019D000310599F03F932F930F931F9387EA93E07C
:1019E0009F938F9385EE93E09F938F930E947C0744
:1019F0000FB6F894DEBF0FBECDBF89819A810E94D9
:101A000016240F900F90DF91CF911F910F910895A1
:101A10000F931F93CF93DF93C0E1D7E20BE811E060
:101A200086E393E00E94B025892B61F4C8010197F9
:101A3000F1F72197A9F78FEF9FEFDF91CF911F91DA
:101A40000F91089586E393E0DF91CF911F910F915D
:101A50000C948E251F93CF93DF93EC01188210E036
:101A60000E94080D1D31C1F08D379105A9F08F3FFF
:101A70002FEF920789F08C32910581F08A3391051E
:101A800069F09C012D7F2032310551F3FE01E10FF9
:101A9000F11D80831F5FE4CF80E001C081E0C10FB2
:101AA000D11D1882DF91CF911F9108952F923F92FF
:101AB0004F925F926F927F928F929F92AF92BF925E
:101AC000CF92DF92EF92FF920F931F93CF93DF930A
:101AD00000D000D0CDB7DEB78091AD04823661F082
:101AE000803751F0863609F065C181E090E8909327
:101AF000AF048093AE045EC18091AE049091AF04B8
:101B00009C838B839058029738F481E090E89093FF
:101B1000B1048093B0044EC18091A5049091A604B5
:101B2000FC01EC57FF4F44855585668577854B81D1
:101B30005C81461B570B50938A0440938904E25BF7
:101B4000FF4FC484D584E684F7846701FF24D7FC63
:101B5000F094EF2CD0929004C0928F04E091A704EF
:101B6000F091A804EE5BFF4F40805180628073804B
:101B700080910B0320911103309112033A83298342
:101B800020900F0330901003009133031091340321
:101B90008C3321F08F5F80930B0380C010920B0376
:101BA0008091B6049091B70480908B0490908C043F
:101BB000A0908D04B0908E04892B09F05DC0CA01FD
:101BC00057FF04C088279927841B950B2091190380
:101BD00030911A0382179307F4F5E1E01416150605
:101BE0000CF0E0E081E0181419041A041B040CF056
:101BF00080E0E8132CC02091B0043091B1048981B9
:101C00009A812817390714F4CA0102C080E090E0D5
:101C10002216330614F080E090E0B901AB81BC815C
:101C20006A1B7B0B6017710714F080E090E06B81FA
:101C30007C81621B730B6017710714F080E090E0E9
:101C4000E11116C03C5F26153705B4F017C0CA0174
:101C5000880F991F13C0D501C40163E0B595A795FE
:101C6000979587956A95D1F791958195910906C0C9
:101C700034506216730614F480E090E0092E000CD4
:101C8000AA0BBB0B880E991EAA1EBB1E80928B044A
:101C900090928C04A0928D04B0928E042091130334
:101CA00030911403DA010E947F3129E095958795E0
:101CB000779567952A95D1F70E94EA1D5C0190936C
:101CC000920480939104A0911503B0911603209182
:101CD0008B0430918C0440918D0450918E040E94AD
:101CE000553639E095958795779567953A95D1F76B
:101CF0000E94EA1D4C0190939404809393042091D8
:101D0000170330911803D6010E947F3149E0959561
:101D10008795779567954A95D1F70E94EA1D90932C
:101D2000960480939504A501BB0C660B770BEB81A1
:101D3000FC816F010F2E000CEE08FF08C40ED51EAB
:101D4000E61EF71EA401990C660B770B460157019E
:101D5000840E951EA61EB71E092E000CAA0BBB0BE7
:101D6000BC01CD01680D791D8A1D9B1D9101200FBD
:101D7000311F2E173F071CF41F01201A310AE9807A
:101D8000FA809701201B310B4B815C81421753076E
:101D90001CF47A01E00EF11E0E94EA1D82159305E3
:101DA0002CF01C01E816F9060CF417013092B1046E
:101DB0002092B0040F900F900F900F90DF91CF9171
:101DC0001F910F91FF90EF90DF90CF90BF90AF9059
:101DD0009F908F907F906F905F904F903F902F904B
:101DE00008958091A5049091A6040E944E0A8091C6
:101DF000A7049091A8040E944E0A80910601909138
:101E00000701DC01ED91FC910084F185E02D09953D
:101E10008115904859F48091060190910701DC01E9
:101E2000ED91FC910680F781E02D09940895CF9300
:101E3000DF931092B7041092B6048FE68093AD043E
:101E400060E086E794E00E94C0288091A50490910C
:101E5000A604892B21F582EF90E00E948E31EC01DF
:101E600002960E941A19CE01805B9F4F0E941A1998
:101E7000CE0182569F4F0E941A19FE01E451FF4F76
:101E80008FEF808328E031E0398328833596808383
:101E9000D093A604C093A504CE010E946320809134
:101EA000A7049091A804892B21F582EF90E00E946D
:101EB0008E31EC0102960E941A19CE01805B9F4F71
:101EC0000E941A19CE0182569F4F0E941A19FE01D4
:101ED000E451FF4F8FEF808328E031E0398328837E
:101EE00035968083D093A804C093A704CE010E94A6
:101EF00063200E94F10E1092AC041092AB04109279
:101F0000A4041092A3041092A2041092A104DF91E1
:101F1000CF9108956817790768F4861B970B209175
:101F20008404309185042817390720F490938504A0
:101F3000809384040895EF92FF920F931F93CF93A1
:101F4000DF93CDB7DEB764970FB6F894DEBF0FBE50
:101F5000CDBF80E090E00E940136843009F045C09A
:101F60000E946B2647E250E066E070E08EE093E06E
:101F70000E94F1350E945F2149E050E06EE270E07E
:101F80008DEA94E00E94F1358091AE049091AF0407
:101F90009093AA048093A90461E08091AD040E940B
:101FA0003A21F12C8E010F5F1F4F84E1E82EE00EE5
:101FB0006F2DC8010E945419882359F14F2DB80183
:101FC000C8010E941C1C811102C0F80104C0C80194
:101FD0000E94B11C08C0EE1611F01192FCCF6F2DBB
:101FE000C8010E942E19F394E3CF0E94A3210E94FE
:101FF00099210E946B268EE392E09F938F9383E05A
:102000008F9387E58F930E9479170F900F900F9011
:102010000F9064960FB6F894DEBF0FBECDBFDF9170
:10202000CF911F910F91FF90EF9008952FB7F894E3
:1020300080910703909108032FBF08950E94161006
:102040002091090330910A038217930731F090938E
:102050000A038093090381E0089580910D03089598
:102060009C019FB7F8943093080320930703709363
:1020700006036093050350930403409303039FBF3B
:1020800008951F920F920FB60F9211242F933F9332
:102090004F935F936F937F938F939F93AF93BF9370
:1020A000EF93FF93E3B123B1269531E02327822FED
:1020B000817090E0880F991FE170E3278E2B90913B
:1020C0003203E82F880FFF0B809102038F70992352
:1020D00041F094E0899FE00DF11D1124E653FB4F80
:1020E00007C094E0899FE00DF11D1124E255FB4FDC
:1020F000E491E093020320910203207351F1809157
:10210000070390910803203111F4019601C0019753
:10211000209103033091040340910503509106037D
:102120002817390714F4CA0104C0841795070CF462
:10213000C90190930803809307030E94B42828EEF6
:1021400033E040E050E00E94943630932004209326
:102150001F04FF91EF91BF91AF919F918F917F915C
:102160006F915F914F913F912F910F900FBE0F9004
:102170001F9018951F920F920FB60F9211242F9354
:102180003F934F935F936F937F938F939F93AF93FF
:10219000BF93EF93FF934F990FC081E080930D039E
:1021A0000E94B42828EE33E040E050E00E949436CC
:1021B0003093200420931F04FF91EF91BF91AF91C2
:1021C0009F918F917F916F915F914F913F912F914F
:1021D0000F900FBE0F901F901895CF92DF92EF9245
:1021E000FF921F93CF93DF93CDB7DEB7EC970FB677
:1021F000F894DEBF0FBECDBF7C016B011F8E19822C
:102200000E94080D8B37910559F0BC018AE00E94AD
:1022100092261EC010E0898181110EC01123C1F0E9
:10222000CE014F960E942A0D8823A1F3CE0101967C
:102230000E942A0D182FEFCF8F8D882379F3A601E6
:10224000BE016F5F7F4FCE014F96F7010995E6CF34
:10225000EC960FB6F894DEBF0FBECDBFDF91CF91E5
:102260001F91FF90EF90DF90CF900895CF93DF9371
:10227000EC0180910103811102C06CE201C06BE7A7
:1022800086E393E00E9429291092010362E286E32B
:1022900093E00E942929DF93CF930E94820662E295
:1022A00086E393E00E9429290F900F906AE386E36A
:1022B00093E0DF91CF910C942929CF93C62F0E94F0
:1022C000361162E286E393E00E9429296C2F86E3AF
:1022D00093E00E94292962E286E393E0CF910C9477
:1022E0002929E091FF02F0910003E60FF11D6081C2
:1022F0000C945D11CF93DF9300D0CDB7DEB7698327
:102300007A830E94361169817A8186E393E00F9087
:102310000F90DF91CF910C943029EF92FF920F93A1
:102320001F93CF93DF93CDB7DEB72C970FB6F894FA
:10233000DEBF0FBECDBF7C01E091FF02F091000334
:10234000E60FF11DA081B181AD010B2E000C660BD3
:10235000770B80910E038634D1F477FD02C049E1FA
:1023600001C047EE2AE530E00E948731042F440F78
:10237000110B220B330B600F711F821F931F22E37F
:1023800030E040E050E00E942B36BA01A9010CE099
:1023900023E0CE0101960E94991FBC01C7010E9453
:1023A0007A112C960FB6F894DEBF0FBECDBFDF9129
:1023B000CF911F910F91FF90EF900895EF92FF92B0
:1023C0000F93CF93DF93CDB7DEB72C970FB6F8946A
:1023D000DEBF0FBECDBF7C01E091FF02F091000394
:1023E000E60FF11D40815181052E000C660B770B25
:1023F0000CE023E0CE0101960E94991FBC01C701A9
:102400000E947A112C960FB6F894DEBF0FBECDBF96
:10241000DF91CF910F91FF90EF900895EF92FF928F
:102420001F93CF93DF9300D000D000D0CDB7DEB79D
:10243000142F6D837E830E94F8056D817E811123A8
:10244000D1F07B0184E0E80EF11C44E050E0CE01C5
:1024500001960E94F632EC81F0E0EE0FFF1FE05E85
:10246000FE4F0190F081E02D6B8189819A81099561
:102470001150B701E4CF0E940E0626960FB6F894CD
:10248000DEBF0FBECDBFDF91CF911F91FF90EF90C8
:1024900008958EE093E0909300038093FF0248E15B
:1024A00062E473E083E40C940E1286E393E00E94EE
:1024B000B02521E0892B09F420E0822F08958EE3D6
:1024C00092E09F938F938BE08F9385E48F930E948C
:1024D000791781E08093D303ECEBF0E0108284E481
:1024E00080830F900F900F900F900895CF92DF92FE
:1024F000EF92FF92CF93DF930E94B4286B017C018F
:1025000084E98093BC00C0918204D09183049091AF
:10251000BC00892F807194FF15C02097C1F30E94E1
:10252000B428DC01CB018C199D09AE09BF09AE01AD
:1025300060E070E084179507A607B70720F30E94B4
:102540005F1281E0DF91CF91FF90EF90DF90CF900D
:102550000895CF93DF93EC010E94B42828EE33E076
:1025600040E050E00E949436C9018C1B9D0BDF9126
:10257000CF910895CF93DF93CDB7DEB728970FB6ED
:10258000F894DEBF0FBECDBF28E0E8E3F1E0DE0146
:10259000119601900D922A95E1F7209119042617C2
:1025A00010F46FEF620F60931A0480931B04FE0116
:1025B0003196E60FF11DE60FF11D9081682F690F2E
:1025C000606840E081E194E028960FB6F894DEBFA1
:1025D0000FBECDBFDF91CF910C944D1DCF93DF93F4
:1025E000CDB7DEB765970FB6F894DEBF0FBECDBF8F
:1025F000BC01CE0101960E940833BE016F5F7F4F80
:1026000081E194E00E94302965960FB6F894DEBF10
:102610000FBECDBFDF91CF910895682F82E10E9458
:10262000BA126FED81E194E00E946E1D60910E037D
:1026300081E194E00C946E1D40E061E081E194E062
:102640000E944D1D60911D0450911C0481E194E095
:1026500040E070E2E52FF0E0461799F020E030E02E
:10266000DC01251738F4A20FB31F51967C932F5F1E
:102670003F4FF6CFAE0FBF1F51961C924F5F45964E
:10268000EBCF8BE39FE10197F1F70895EF92FF9273
:102690000F931F93CF93DF937C01062FC8E0D0E008
:1026A00011E061E0912F902309F460E0C7010E94DE
:1026B000F007110F2197A9F7DF91CF911F910F918B
:1026C000FF90EF900895CF93DF93DC019B01205F93
:1026D0003F4FFB01ED019C9192959F709A3010F055
:1026E000995C01C0905D9083119698819F7032969D
:1026F0009A3010F0995C01C0905DEF0121979883AA
:10270000E217F30739F7FB01108ADF91CF910895A3
:10271000AF92BF92CF92DF92EF92FF920F931F93EF
:10272000CF93DF93CDB7DEB7A1970FB6F894DEBF96
:102730000FBECDBF7C015B016A01FB018481882350
:10274000B9F0F70164817581082E000C990B01978F
:102750008C30910530F4FC01E25BFE4F808190E00B
:1027600002C080E090E00E94A426882309F494C06F
:1027700010E0612FCE0101960E945419882351F177
:10278000F701848195812D813E818217930701F5A0
:1027900081309105C1F00297F9F48A85882399F078
:1027A00088E0815080F0282F30E0F701E20FF31F1E
:1027B000AAE0B0E0AC0FBD1FA20FB31F41859C91F2
:1027C000491779F305C0F70196818F81981721F099
:1027D0001F5FCFCF6FEF01C0612FF60160831182C1
:1027E00067FD07C0F5018381811156C0C7010E94B2
:1027F0005419F5018281882309F44AC0F7018481C4
:102800009581029709F044C05601FFEFAF1ABF0A45
:102810008DE0F7013696DE01559601900D928A956E
:10282000E1F7F7018681803119F080E090E002C085
:1028300086EF93E024E431E03A8329839C838B8301
:102840001E821D8281E0888B88E0FE017896DE0181
:10285000179601900D928A95E1F71F86CE01019699
:102860000E948608882329F0CE0101960E94300438
:1028700002C080E090E8AC01990F660B770B09E08D
:1028800023E0C5010E941520CE0101960E94870415
:10289000B601C7010E94121CA1960FB6F894DEBFC4
:1028A0000FBECDBFDF91CF911F910F91FF90EF90A1
:1028B000DF90CF90BF90AF9008951F920F920FB608
:1028C0000F9211242F933F934F935F936F937F93B6
:1028D0008F939F93AF93BF93EF93FF9386E393E020
:1028E0000E944529FF91EF91BF91AF919F918F91E8
:1028F0007F916F915F914F913F912F910F900FBEFC
:102900000F901F9018951F920F920FB60F921124DF
:102910002F938F939F93EF93FF93E0914603F09152
:1029200047038081E0914C03F0914D0382FD12C07A
:10293000908180914F038F5F8F7320915003821796
:1029400051F0E0914F03F0E0EA5CFC4F958F8093EB
:102950004F0301C08081FF91EF919F918F912F9143
:102960000F900FBE0F901F901895CF9360910704A2
:10297000662321F060910A0481E0682788E094E0F2
:102980000E94602480910D03882329F110920D0389
:10299000C0910C038C2F8C7F80930C030E94551ADE
:1029A0000E94BC1A42E050E060E070E080E090E0FD
:1029B0000E94301020E13AE040EA54E065E57AE117
:1029C00081E893E00E94A209C0930C030E94551A6B
:1029D000CF910C94BC1ACF9108958F929F92AF9291
:1029E000BF92EF92FF920F931F93CF93DF93E62E48
:1029F000FC01D585F4801092D4030E94B4284B01C9
:102A00005C0184EA8093BC000091820410918304ED
:102A10008091BC0087FD16C001151105C9F30E9405
:102A2000B428DC01CB0188199909AA09BB0920E067
:102A300030E080179107A207B30730F30E945F12BE
:102A4000C1E00CC08091B900887F883031F080915E
:102A5000B900887F803109F08EC0C0E0C093D403F4
:102A6000C1119BC0FF0CF092BB000E94B4284B0127
:102A70005C0184E88093BC0000918204109183047F
:102A80008091BC0087FD16C001151105C9F30E9495
:102A9000B428DC01CB0188199909AA09BB0920E0F7
:102AA00030E080179107A207B30730F30E945F124E
:102AB000C1E01AC08091B900887F8831A9F0809167
:102AC000B900887F803481F0C091B900C87F8091BF
:102AD000B900887F803231F08091B900887F8834D6
:102AE00009F058C00E947612C093D403C11155C09A
:102AF000DE29D093BB000E94B4284B015C0184E81E
:102B00008093BC0000918204109183048091BC00EA
:102B100087FD16C001151105C9F30E94B428DC0118
:102B2000CB0188199909AA09BB0920E030E0801778
:102B30009107A207B30730F30E945F12C1E012C0F1
:102B40008091B900887F883269F0C091B900C87F50
:102B50008091B900887F803319F40E94761202C0F8
:102B60000E945F12C093D403C11117C00E94761255
:102B70008093D40312C08091B900887F883331F4E8
:102B8000C091B900C87F0E945F1268CFC091B900A0
:102B9000C87F64CF0E945F12A7CFDF91CF911F91B2
:102BA0000F91FF90EF90BF90AF909F908F900895FE
:102BB000CF93DF93823028F0909116049860909321
:102BC00016048093190410921A0410921B0462E3F5
:102BD00070E080E090E00E947A2860911E0481E11C
:102BE00094E00E94ED1468EE73E080E090E00E94B3
:102BF0007A2860E381E194E00E94341DCBE4D6E4BE
:102C0000CE010197F1F760E381E194E00E94341D69
:102C10002197F1F760E381E194E00E94341D83E5A0
:102C200092E00197F1F760E281E194E00E94341DA7
:102C300060911604606240E081E194E00E944D1DC5
:102C400084E08093170440E06CE081E194E00E940E
:102C50004D1D0E941C1382E08093180440E066E042
:102C600081E194E00E944D1D40E062E081E194E04A
:102C70000E944D1D8BE39FE10197F1F7DF91CF910A
:102C800008951092D303449A459AE9EBF0E08081CD
:102C90008E7F808380818D7F8083E8EBF0E088E405
:102CA000808384E48093BC008CE0808388EE93E092
:102CB0009093830480938204E1E1F4E0158284859B
:102CC0000C94D81580E008950895089560E087E099
:102CD0000E94BA128091AD048F36E9F03CF482363E
:102CE00061F08636D9F48DEB95E009C0803761F04C
:102CF0008437A1F486E995E013C080EB95E00E944B
:102D0000EE1286EB95E00CC080EB95E00E94EE128F
:102D100088EA95E005C084EA95E002C089E895E07C
:102D20000E94EE1290911B0480911C04981730F4BD
:102D300060E281E194E00E942929F4CF0895EF92A6
:102D4000FF920F931F93CF93DF93CDB7DEB7A19779
:102D50000FB6F894DEBF0FBECDBF8C01F62E211149
:102D600005C06CE249A30E94292949A1842F042EA1
:102D7000000C990B9F934F938F2D0F2C000C990BE8
:102D80009F93FF928FE695E09F938F93CE010196DC
:102D90007C019F938F930E942433B701C8010E9446
:102DA00030290FB6F894DEBF0FBECDBFA1960FB687
:102DB000F894DEBF0FBECDBFDF91CF911F910F9171
:102DC000FF90EF9008950C9423320C9423320C94CE
:102DD00023320C9423320F931F93CF93DF938B01F5
:102DE000EA01FC01608187E492E00E94C12787FD2F
:102DF00008C0C80FD11D87FDDA95C8010E94CF32E7
:102E00006883DF91CF911F910F9108950F931F93C6
:102E1000CF93DF938B01EA01FC0160818CE492E0A7
:102E20000E94C12787FD08C0C80FD11D87FDDA9514
:102E3000C8010E94CF326883DF91CF911F910F911B
:102E40000895EF92FF920F931F93CF93DF9300D0DB
:102E50001F92CDB7DEB77B018A01DC012C91622F76
:102E600088ED91E02B830E94C1272B812136C9F484
:102E7000F8013A96D7019C91992389F191340CF08D
:102E800097539295907FB2E0EB0EF11CD70111970A
:102E90008C91813414F0875301C08053982B919307
:102EA000E9CF2A3689F4B701CE0101960E94EB1EC4
:102EB0008823A9F089819A8125E0959587952A959F
:102EC000E1F7F80181870BC087FD09C0080F111DCC
:102ED00087FD1A95C7010E94CF32D8016C930F90DD
:102EE0000F900F90DF91CF911F910F91FF90EF9076
:102EF00008956F927F928F929F92AF92BF92DF92CE
:102F0000EF92FF920F931F93CF93DF93CDB7DEB76E
:102F100029970FB6F894DEBF0FBECDBFAB8CBC8C2B
:102F200084E40E94F805698D88EF95E00E945D11A8
:102F300082EF95E00E9436111F928A8D8F9388E16F
:102F400092E09F938F930E9482068BEE95E09F9371
:102F50008F930E9482068E01035E1F4F0F900F9089
:102F60000F900F900F900F90D12C83EEE82E85E0FC
:102F7000F82E98EE892E95E0992EF501ED0DF11DB4
:102F80008081882309F45BC0863679F17CF484362D
:102F900009F047C0380182E0680E711CF801818198
:102FA0008F9380818F939F928F9234C08337A1F04B
:102FB0008437B9F53801F2E06F0E711CF8014081D9
:102FC0005181052E000C660B770B0CE021E0CE0141
:102FD00001960E9415201AC03801F2E06F0E711C94
:102FE000F80181818F93808112C03801F2E06F0E69
:102FF000711CF80140815181052E000C660B770B86
:103000000CE023E0CE0101960E94991F9F938F93BD
:10301000FF92EF920E9482060F900F900F900F90F8
:103020008301D394F501ED0DF11D8081882309F40E
:10303000A4CF6CE286E393E00E9429299ECF6DE540
:1030400086E393E00E9429290E940E0629960FB676
:10305000F894DEBF0FBECDBFDF91CF911F910F91CE
:10306000FF90EF90DF90BF90AF909F908F907F90F8
:103070006F9008952F923F924F925F926F927F923E
:103080008F929F92AF92BF92CF92DF92EF92FF9278
:103090000F931F93CF93DF93FC0184819581A681C9
:1030A000B78180879187A287B387C080D180E28073
:1030B000F380C482D582E682F782408351836283A3
:1030C00073830089118922893389048B158B268BA0
:1030D000378B84849584A684B784808A918AA28A57
:1030E000B38A218C308CC32DD0E024013501401AE5
:1030F000510A620A730A480C591C6A1C7B1C022C78
:1031000004C0B594A794979487940A94D2F748186A
:1031100059086A087B084801590104C0B594A7946E
:10312000979487942A94D2F7480C591C6A1C7B1CEC
:10313000032C04C075956795579547950A94D2F767
:10314000440E551E661E771E5E0141E0A41AB108AA
:1031500004C0F594E794D794C794AA94D2F7C40C0A
:10316000D51CE61CF71C04C0B595A79597958795C7
:103170003A94D2F78C0D9D1DAE1DBF1D229704C041
:103180003595279517950795CA95D2F7BC01CD01BE
:10319000601B710B820B930B6487758786879787FB
:1031A000DF91CF911F910F91FF90EF90DF90CF9023
:1031B000BF90AF909F908F907F906F905F904F9057
:1031C0003F902F900895AB01770F660B770BBA01F4
:1031D00055274427FC01825B9F4F408351836283C4
:1031E00073834483558366837783408751876287DF
:1031F00073874487558766877787408B518B628BAF
:10320000738B448B558B668B778B7A96E817F9070F
:1032100021F70895FC01862F880F8C5F808F618FC6
:1032200082AB63ABDF01A45BBF4F8C93E35BFF4FCB
:1032300060830895CF93DF93FC01EC01C45BDF4F03
:10324000DC01A35BBF4F98E0908F82E0818F92AB4F
:1032500083AB98838C93DF91CF9108950F931F9345
:10326000CF93DF931F92CDB7DEB78C0180E090E063
:1032700069830E9401366981843011F4603110F055
:1032800080E00CC084E1689FB001112462557E4F3C
:1032900044E150E0C8010E94093681E00F90DF91BF
:1032A000CF911F910F9108950F931F93CF93DF93A9
:1032B0001F92CDB7DEB78C0180E090E069830E9459
:1032C00001366981843011F4603110F080E00CC067
:1032D00084E1689FB001112462557E4F44E150E0C3
:1032E000C8010E94F13581E00F90DF91CF911F91CD
:1032F0000F91089549E050E06EE270E08DEA94E0AD
:103300000E9409368091AE049091AF049093AA0474
:103310008093A904089547E250E066E070E08EE0F3
:1033200093E00E9409360C947A19CF93DF93EA0157
:103330000E94BA12CE01DF91CF910C94EE12EF925F
:10334000FF920F931F93CF93DF93CDB7DEB72A97EA
:103350000FB6F894DEBF0FBECDBF809188048111F7
:1033600003C01091B60401C012E080916A021813E4
:1033700009C080918604909187040E94A9121111BE
:103380003BC02CC010936A021A3078F4812F90E071
:10339000880F991FFC01E25FFD4F40815181FC01C4
:1033A000E650FE4FE080F18006C082EDE82E85E019
:1033B000F82E43ED55E063E080E00E949519C701C7
:1033C0000E94EE1290911B0480911C04981788F6BD
:1033D00060E281E194E00E942929F4CF0E94BE219D
:1033E0008C010E94B8210817190718F40E94BE2109
:1033F00019C00E94B82116C02DEF210F223090F085
:10340000183011F0193039F424EB30E0A901481BD1
:10341000590BCA0107C015501230D0F580918404B1
:10342000909185048F3F5FEF950791F12CE330E099
:10343000B9010E946531482FE92FCB01B9010E94E3
:1034400065317B01EF934F939F938F93FF926F931F
:1034500085EC95E09F938F938E010F5F1F4F1F9315
:103460000F930E9424330FB6F894DEBF0FBECDBF7A
:10347000EF2819F402970E5F1F4F63E094E1981B49
:10348000892F0E94BA12B80181E194E00E9430298C
:103490002A960FB6F894DEBF0FBECDBFDF91CF9155
:1034A0001F910F91FF90EF90089544E855E060E080
:1034B00080E00E94951940EB55E061E080E00E94B9
:1034C000951980910C0380FD03C04DEB55E002C0BF
:1034D0004DE755E062E080E00E94951981E00E948E
:1034E0000D1382E00C940D13EF92FF920F931F9334
:1034F000CF93DF93CDB7DEB729970FB6F894DEBF31
:103500000FBECDBF8A010E94BA12C801905802971F
:1035100028F487E795E00E94EE1221C0A801110F60
:10352000660B770B09E021E0CE0101967C010E9439
:103530001520F70101900020E9F71E2D1E1B1A5FD0
:1035400000E001173CF460E281E194E00E946E1D0E
:103550000F5FF7CFB70181E194E00E9430292996EF
:103560000FB6F894DEBF0FBECDBFDF91CF911F9194
:103570000F91FF90EF90089580910C0381FF28C078
:103580000E94B42828EE33E040E050E00E949436D8
:1035900028703327232B61F4809106019091070155
:1035A000DC01ED91FC910480F581E02D099501C0CD
:1035B00080E090910C03292F2170821749F0882315
:1035C00011F0916001C09E7F90930C030E94551AE8
:1035D0000E942421AC0161E086E00E94741A4091AF
:1035E000AE045091AF0461E08CE00E94741A8091A7
:1035F0000C0380FF0CC08091060190910701DC0153
:10360000ED91FC910084F185E02D099502C00E94A6
:103610000E21AC0162E086E00E94741A4091B00471
:103620005091B10480910C0380FF02C041E050E84A
:1036300062E08CE00C94741A089508959F92AF9202
:10364000BF92CF92DF92EF92FF920F931F93CF938F
:10365000DF93CDB7DEB761970FB6F894DEBF0FBE2C
:10366000CDBF982E8B016A017901FB012281338144
:10367000215031092C30310528F4F901E25BFE4F6D
:10368000A08002C0A12CB12C80916B02811104C0DA
:103690006CE2C7010E94292910926B026BE7C701F7
:1036A0000E94292921E0492D69E6C7010E949F1641
:1036B00020E04A2D64E7C7010E949F1620E0F80130
:1036C000408163E6C7010E949F1620E0F801418116
:1036D00062E6C7010E949F1620E0F801428166E67B
:1036E000C7010E949F1620E0F801448168E6C701E7
:1036F0000E949F1620E0F801408564E6C7010E9401
:103700009F1620E0F801468160E7C7010E949F16DE
:10371000C114D10469F0F6018081882349F062E583
:1037200072E0C7010E943029B601C7010E9430290A
:10373000F80184819581019731F420E0478168E7A1
:10374000C7010E949F16F801848195810297B1F408
:1037500068E572E0C7010E943029BE016F5F7F4FAC
:10376000C80109960E946313BE016F5F7F4FC701B6
:103770000E94302962E2C7010E942929F801848150
:1037800095810297C9F5A189F0E2AF02D001112419
:10379000AD010B2E000C660B770B80910E03863467
:1037A000D1F4B7FF02C047EE01C049E12AE530E09D
:1037B0000E948731042F440F110B220B330B600F33
:1037C000711F821F931F22E330E040E050E00E940F
:1037D0002B36BA01A90108E023E0CE0101960E9430
:1037E000991F6FE572E0C7010E943029BE016F5F2B
:1037F0007F4FC7010E9430296DE7C7010E94292928
:1038000061960FB6F894DEBF0FBECDBFDF91CF91AA
:103810001F910F91FF90EF90DF90CF90BF90AF90EE
:103820009F900895FB0123853485AB014F5F5F4F67
:10383000BC0180810C941E1BCF92DF92EF92FF920D
:103840000F931F93CF937C01FC018081682F70E060
:103850006530710514F084E072C0F7019181692F21
:1038600070E06730710514F085E069C0F70162818E
:103870007381603108F062C06115710521F0693013
:10388000710534F460C0911107C08823F1F004C0C1
:1038900091111BC062E070E01F928F931F929F9363
:1038A0007F936F9385E692E09F938F9387E08F934A
:1038B00085E48F930E9479178DB79EB70A960FB64D
:1038C000F8949EBF0FBE8DBF3CC0615071096C3033
:1038D000710530F4FB01E25BFE4F008110E002C095
:1038E00000E010E0F701C480D580B601C8010E9455
:1038F000A426C82F811117C0DF92CF921F930F9378
:1039000086E692E09F938F9388E08F9385E48F9370
:103910000E9479178DB79EB708960FB6F8949EBF90
:103920000FBE8DBF15C092E0C916D10489F4F7010E
:103930006681603169F070E089E001C086E00E9434
:103940009226C0E005C08111C0CF61E070E0A4CF35
:103950008C2FCF911F910F91FF90EF90DF90CF9020
:103960000895EF92FF920F931F93CF93DF93EC0193
:103970008A819B8101978C30910530F4FC01E25BD8
:10398000FE4F008110E002C000E010E0CE010E9476
:10399000D6257C01892B09F444C08885811141C05A
:1039A0000130110561F0ECF104301105D4F5B801D6
:1039B000CE010E940F28D7018D939C9332C061E005
:1039C00070E0CE010E940F288C01D7018D919C914F
:1039D000892B29F46A817B8182E00E9492268A8168
:1039E0009B81069761F4D801ED91FC910680F781E7
:1039F000E02DC8010995F7011183008312C0D7019A
:103A00008D919C91FC0111830083EF50FF4F2FEFAC
:103A10002083DF91CF911F910F91FF90EF900C9435
:103A20006320DF91CF911F910F91FF90EF90089548
:103A30008091B0049091B10408958091AE0490916A
:103A4000AF040895CF93DF93CDB7DEB79E01255F16
:103A50003F4F49855A856F8178858D819E810E946F
:103A60004733DF91CF9108950F931F93CF938C012C
:103A7000C62F0E94ED146C2F6460C8010E94ED14E3
:103A80006C2F6B7FC8010E94ED1483EC90E00197CE
:103A9000F1F7CF911F910F910895FF920F931F930C
:103AA000CF93DF931F92CDB7DEB78C01F62E962F02
:103AB000907F692F642BC80149830E94341D80E1E7
:103AC000F89EB00111244981642BC8010F90DF9149
:103AD000CF911F910F91FF900C94341DFC018285B2
:103AE0009185DF0125E1929FA00DB11D1124A80F42
:103AF000B11D51966C938F5F82878089811104C0BC
:103B0000CF0141E00E944D1D80E090E008958F922A
:103B10009F92AF92BF92CF92DF92EF92FF920F935C
:103B20001F93CF93DF937C01FB0191838083C0E0DF
:103B3000D0E0CC24C39420E030E0A90100811181C1
:103B4000D801DC90DD2049F1B0E2DB1203C0209700
:103B5000F9F027C08DE2D816D1F080ED8D0D8A30B6
:103B6000E0F4AAE0B0E00E944A362D2DDD0C330BC4
:103B7000A901405351094A01550FAA08BB089B01EE
:103B8000AC01280D391D4A1D5B1D219601C0C12CB9
:103B90000F5F1F4F11830083D1CFCD2B11F4F18222
:103BA000E082C11008C066277727CB01621B730B28
:103BB000840B950B02C0CA01B901DF91CF911F910F
:103BC0000F91FF90EF90DF90CF90BF90AF909F90BC
:103BD0008F900895623020E872072FEF82079207D6
:103BE00044F0611520E87207810591052CF4CB01A2
:103BF000089582E090E808958FEF9FE708950F936E
:103C00001F9320910E032634F9F49B01AC01225737
:103C10003C474F4F5F4F57FD02C0E9E101C0E7EE5F
:103C2000AAE5B0E00E944A360E2FEE0F110B220BD0
:103C3000330B600F711F821F931F22E330E040E0BF
:103C400050E00E942B3605C09B01AC01305A4F4F0B
:103C50005F4F57FD03C0E0E0F1E002C0E0E0FFEF9E
:103C6000AAE0B0E00E944A368F01FF0F220B330B0F
:103C7000600F711F821F931F20E032E040E050E090
:103C80000E942B36C9011F910F9108959C01FB01E1
:103C90009081892F8F7D11F09E3231F481E02617BB
:103CA000370719F080E0089581E008953F924F9220
:103CB0005F926F927F928F929F92AF92BF92CF92BC
:103CC000DF92EF92FF920F931F93CF93DF9300D079
:103CD000CDB7DEB75C018B016DE270E0C8010E94D8
:103CE000BB324C01BE016F5F7F4FC8010E94871D30
:103CF0006B017C0169817A81C8010E94461E88237C
:103D000011F080E054C06EE270E0C8010E94BB3246
:103D1000009781F18C010F5F1F4FBE016F5F7F4FD6
:103D2000C8010E94871D2B013C0139807A81632DD7
:103D3000C8010E94461E8111E4CFA301920199E0BF
:103D4000220F331F441F551F9A95D1F7132D101BB7
:103D50006AE0462E512C612C712C115070F0CA0172
:103D6000B9016B5F7F4F8F4F9F4FA30192010E945C
:103D70002B36F3CF20E030E0A90189E0CC0CDD1C2C
:103D8000EE1CFF1C8A95D1F7D701C601892829F4BA
:103D9000820F931FA41FB51F04C0821B930BA40B9B
:103DA000B50BF50180839183A283B38381E00F90EB
:103DB0000F90DF91CF911F910F91FF90EF90DF90C7
:103DC000CF90BF90AF909F908F907F906F905F90BB
:103DD0004F903F9008958F929F92AF92BF92FF9223
:103DE0000F931F93CF93DF9300D000D0CDB7DEB7F2
:103DF0008C01CE0101960E94561EF82E882339F1BF
:103E000029813A814B815C8180910E038634C1F413
:103E100057FD02C0EDE201C0E3EDA2E3B0E00E9475
:103E20004A368E2EEE0F9908AA08BB08680D791D38
:103E30008A1D9B1D2AE530E040E050E00E942B36B1
:103E4000CA01B9010E94EA1DF801918380838F2D78
:103E50000F900F900F900F90DF91CF911F910F91C6
:103E6000FF90BF90AF909F908F9008958F929F92F8
:103E7000AF92BF92EF92FF920F931F93CF93DF9376
:103E800000D000D0CDB7DEB78C017B0181E696E093
:103E90000E94C632892B41F481E090E8F8019183B9
:103EA0008083FF24F39435C0B701CE0101960E94B0
:103EB000561EF82E882369F129813A814B815C8155
:103EC00080910E038634D9F430544109510957FDCD
:103ED00002C0EDE201C0E3EDA2E3B0E00E944A3689
:103EE0008E2EEE0F9908AA08BB08680D791D8A1D51
:103EF0009B1D2AE530E040E050E00E942B36CA01CD
:103F0000B9017056810991090E94EA1DF801918357
:103F100080838F2D0F900F900F900F90DF91CF9196
:103F20001F910F91FF90EF90BF90AF909F908F9057
:103F300008958F929F92AF92BF92DF92EF92FF927D
:103F40000F931F93CF93DF93EC01D02E77FD03C027
:103F500080E2888309C08DE28883709560955095D2
:103F600041955F4F6F4F7F4F4A015B0139E0B59438
:103F7000A794979487943A95D1F77401213061F012
:103F8000223029F404E610E0E1E5F6E009C008EE8D
:103F900013E0E9E4F6E004C00AE010E0E9E5F6E049
:103FA0009A01AB01317044275527D8010E944A3647
:103FB000DC01CB019F5FAF4FBF4F29E0B595A795BF
:103FC000979587952A95D1F7BC018017910730F016
:103FD00074018FEFE81AF80A60E070E07F936F9346
:103FE000FF92EF92FF93EF930D2D10E00150110916
:103FF0001F930F93CE0101969F938F930E94221DD2
:104000008DB79EB70A960FB6F8949EBF0FBE8DBFB0
:10401000CE01DF91CF911F910F91FF90EF90DF9034
:10402000BF90AF909F908F900895CF92DF92EF92C4
:10403000FF920F931F93CF93DF93D82FC92F122F87
:10404000CA019058029748F464E476E08D2F9C2FC3
:104050000E9408338D2F9C2F2DC080910E03863433
:1040600009F59A01AB0122573C474F4F5F4F57FD6F
:1040700002C0E9E101C0E7EEAAE5B0E00E944A36DD
:10408000CE2EEE0FDD08EE08FF086C0D7D1D8E1D97
:104090009F1D22E330E040E050E00E942B36BA0141
:1040A000A90103C0505A6F4F7F4F212F8D2F9C2F96
:1040B0000E94991FDF91CF911F910F91FF90EF9078
:1040C000DF90CF900895EF92FF920F931F93CF93BD
:1040D000DF93FC01A081B181109709F441C0EC018C
:1040E000ED91FC9111970680F781E02DCD010995A6
:1040F0008823B1F17E01F1EFEF0EF11CD7018C9115
:104100008D3370F188819981DC01ED91FC910084FF
:10411000F185E02D09958C018115904809F1B801D0
:10412000CE0102960E94E318B801CE01805B9F4F3A
:104130000E94E31860E070E0CE0182569F4F0E941B
:10414000E318FE01E351FF4FCC57DF4F8C859D856F
:10415000AE85BF8580839183A283B383F7011082EC
:10416000DF91CF911F910F91FF90EF9008950097ED
:1041700039F0DC01ED91FC910480F581E02D09948A
:1041800080E008952091B6043091B70481E0243096
:10419000310529F02830310511F080E008950895A7
:1041A0000F931F93CF93DF9300D000D0CDB7DEB72E
:1041B0004817590708F4CA019C01DB010E948731A6
:1041C00020E13EE040E050E00E942B368901298347
:1041D0003A834B835C830E94C22029813A818823E1
:1041E00021F000271127021B130BE091A704F09187
:1041F000A804EE5BFF4F80819181A281B3810A0FF9
:104200001B1F10939804009397040F900F900F902A
:104210000F90DF91CF911F910F910895E091A70426
:10422000F091A804808191810E94B720882349F0F1
:10423000E091A704F091A804EE5BFF4F8281938187
:10424000089580E090E80895E091A504F091A60417
:10425000808191810E94B720882349F0E091A504D4
:10426000F091A604EE5BFF4F82819381089580E078
:1042700090E808959091AD04891309C02091B60487
:104280003091B704255031092330310528F41092BC
:10429000B7041092B60402C0662381F08093AD0487
:1042A0008F3651F481E090E89093AF048093AE0490
:1042B0009093B1048093B0040C947A190895CF932D
:1042C000DF93CEE0D3E08091A7049091A8046D8D98
:1042D00002960E940A198091A7049091A8046E8DFD
:1042E000805B9F4F0E940A198091A7049091A804B7
:1042F0006F8D82569F4F0E940A198091A50490915C
:10430000A60468A102960E940A198091A5049091C2
:10431000A60469A1805B9F4F0E940A198091A504A1
:104320009091A6046AA182569F4FDF91CF910C9481
:104330000A1947E250E06DE176E08EE093E00E94DA
:10434000F6320C945F2160E08FE60E943A21EDEA9C
:10435000F4E081E090E8928381839483838386E60E
:1043600090E09683858380E09AE090878783089524
:104370008091A3049091A4040C94A9128091A104AB
:104380009091A2040C94A9120F931F93CF93DF93E3
:104390008C0177FF03C0719561957109EB0135E0E0
:1043A000D595C7953A95E1F7BE010D2E000C880B07
:1043B000990B0E94EA1D97FD06C0863591052CF0E9
:1043C000C5E5D0E002C0C0E0D0E02AEA31E02C1B15
:1043D0003D0BF801A081B1810E947F3129E09595C4
:1043E0008795779567952A95D1F70E94EA1DF80180
:1043F00091838083DF91CF911F910F910C947A1953
:104400000F931F93CF93DF938C0177FF03C07195B8
:1044100061957109EB0135E0D595C7953A95E1F7BE
:10442000BE010D2E000C880B990B0E94EA1D97FD12
:1044300006C08B3991052CF0CAE9D0E002C0C0E07B
:10444000D0E09E012A593D4FF801A081B1810E9420
:104450007F3129E095958795779567952A95D1F7CE
:104460000E94EA1D8931910514F489E190E0F80178
:1044700091838083DF91CF911F910F910C947A19D2
:104480004F925F926F927F92AF92BF92CF92DF92E4
:10449000EF92FF920F931F93CF9380911001909111
:1044A0001101DC01ED91FC910190F081E02D099565
:1044B000909188048917A9F080938804811103C022
:1044C00080E096E002C087E096E09F938F938EE0B5
:1044D00096E09F938F930E9453070F900F900F9039
:1044E0000F908091AD048F3641F481E090E090937D
:1044F000B7048093B604C1E001C0C0E08091B0046D
:104500009091B10490580297D0F0E091A704F091F7
:10451000A804808191810E94B720882381F0E091D6
:10452000A504F091A604808191810E94B720811199
:104530000BC08091AD04823611F0803729F41092BF
:10454000B7041092B604C1E080918604909187046C
:104550000E94A9128C010E94BE216C010E94B82108
:104560005C01E091A704F091A804EE5BFF4F40804E
:10457000518062807380E091A504F091A604EE5B07
:10458000FF4FE280F3800E94B42828EE33E040E041
:1045900050E00E949436E091B604F091B704EA30FE
:1045A000F10508F027C1EC5CFF4F0C947931309392
:1045B000870420938604C1111DC1109285041092B6
:1045C00084046091B0047091B10420911B03309178
:1045D0001C03260F371F261537057CF5B50188E526
:1045E00092E00E948A0F8091AD04863621F4B601D4
:1045F00088E592E00CC08091AE049091AF040F96D4
:104600008E159F050CF0EBC0B6018CE291E00E9484
:104610008A0F80910E0190910F018B50944009F404
:104620004EC08091840490918504892B19F085E017
:1046300090E041C084E090E03EC080911D039091E5
:104640001E03860F971F681679060CF0C8C0B601C6
:1046500088E592E00E948A0FB5018CE291E00E9409
:104660008A0F8091AD04863649F08091AE04909116
:10467000AF040F97E816F9060CF0B1C080910C0159
:1046800090910D018B50944059F48091310388230F
:10469000B1F080910A0190910B018B50944079F018
:1046A0008091840490918504892B19F086E090E034
:1046B00002C083E090E09093B7048093B6048091A9
:1046C000B6049091B7040397029708F093C08091C5
:1046D000AB04882321F0B60188E097E008C0809100
:1046E000AC04882309F486C0B50184E893E00E94F5
:1046F0008A0F87E090E07AC081E08093AB0430932A
:10470000A2042093A1046091B4047091B504A8019F
:104710008091290390912A030E94D02084E090E0A8
:104720009093B7048093B604209197043091980435
:104730008091B0049091B1048217930774F4809132
:10474000AD04863609F456C08091AE049091AF0452
:104750004097E816F9060CF04DC0053B110528F00E
:1047600030939A04209399043AC088E090E03EC0C8
:1047700081E08093AC043093A4042093A30460915F
:10478000B2047091B304A80180912703909128038B
:104790000E94D02083E090E09093B7048093B60409
:1047A00080919704909198042091B0043091B104C5
:1047B000821793076CF42091AD042636D9F020912E
:1047C000AE043091AF04205F3F4F2E153F0594F4A7
:1047D000053B110548F090939C0480939B04109234
:1047E000B7041092B60406C089E090E09093B70435
:1047F0008093B604CF911F910F91FF90EF90DF90BF
:10480000CF90BF90AF907F906F905F904F90089542
:104810009093B1048093B0041092AC041092AB0456
:104820000E94560D0E9440220C947A19CF93DF9378
:10483000EC012091AE043091AF049093AF048093CB
:10484000AE04281B390B37FF03C031952195310980
:104850002130314024F01092AC041092AB040E943D
:10486000560D0E9440228091AD04803779F420914A
:10487000A9043091AA04C9018C1B9D0B97FF03C0AA
:104880009195819591098138910524F0DF91CF911F
:104890000C947A19DF91CF91089580E090E8089503
:1048A000DC01ED91FC910084F185E02D099521E07A
:1048B0008115904809F420E0822F089580E0089542
:1048C0000F931F93CF93DF931F92CDB7DEB78C0169
:1048D000DC01ED91FC910280F381E02D6983099563
:1048E0006981681759F0F80162838091B0006623EE
:1048F00011F0806201C08F7D8093B0000F90DF9136
:10490000CF911F910F910895FC0182810895FFCFEF
:10491000833081F028F4813099F08230A1F008953D
:104920008730A9F08830B9F08430D1F480918000CC
:104930008F7D03C0809180008F77809380000895E1
:1049400084B58F7702C084B58F7D84BD0895809132
:10495000B0008F7703C08091B0008F7D8093B0004E
:1049600008950F931F93CF93DF93FC01028123815E
:1049700030E0F901E658F94F8491F901EC5FFA4F04
:10498000D491F901E051FB4FC491CC23C9F0162F0B
:1049900081110E948824EC2FF0E0EE0FFF1FE059F8
:1049A000F94FA591B4918FB7F894101305C09C915D
:1049B000ED2FE095E92302C0EC91ED2BEC938FBF36
:1049C000DF91CF911F910F910895CF93DF93282FFF
:1049D00030E0F901E658F94F8491F901EC5FFA4FA4
:1049E000D491F901E051FB4FC491CC2391F0811196
:1049F0000E948824EC2FF0E0EE0FFF1FEA51FB4FDE
:104A0000A591B491EC91ED2381E090E021F480E058
:104A100002C080E090E0DF91CF910895CF93DF93C3
:104A2000EC018B810E94E5242A8130E041E082176D
:104A3000930709F440E0842FDF91CF910895CF933D
:104A4000DF93EC018B810E94E52421E0892B09F49E
:104A500020E08A818227DF91CF9108953FB7F894B3
:104A60008091BD049091BE04A091BF04B091C00498
:104A700026B5A89B02C02F3F99F43FBFBA2FA92F9C
:104A8000982F8827820F911DA11DB11DBC01CD015A
:104A900042E0660F771F881F991F4A95D1F7089546
:104AA0000196A11DB11DE9CFCF92DF92EF92FF9247
:104AB0000F931F93CF93DF936C017A018B01C0E0BA
:104AC000D0E0CE15DF0589F0D8016D918D01D601BA
:104AD000ED91FC910190F081E02DC6010995892BA3
:104AE00011F47E0102C02196ECCFC701DF91CF9176
:104AF0001F910F91FF90EF90DF90CF900895FC01F0
:104B0000538D448D252F30E0842F90E0821B930B32
:104B1000541710F0CF96089501970895FC01918DD8
:104B2000828D981761F0828DDF01A80FB11D5D960F
:104B30008C91928D9F5F9F73928F90E008958FEF7D
:104B40009FEF0895FC01918D828D981731F0828D31
:104B5000E80FF11D858D90E008958FEF9FEF089588
:104B6000FC01918D228D892F90E0805C9F4F821BEC
:104B700091098F739927089580E090E0892B29F09F
:104B80000E94551281110C9400000895089580E050
:104B900090E00895FC0180850895FC0162830895EA
:104BA0000C9423320C9423320C942332FC01808128
:104BB000823088F48181823070F482819381019700
:104BC0008930910540F4880F991FFC01EE5DFD4F7F
:104BD00080819181089580E090E008950F931F9364
:104BE000CF93DF938C010E94D625EC01892B09F429
:104BF0006DC0D80112962D913C911397C901019770
:104C00008C30910530F4FC01E25BFE4F808190E036
:104C100002C080E090E082309105D1F183309105AF
:104C200029F1019709F052C0E881F9812630310558
:104C300009F442C080819181B1E088309B0709F47A
:104C400045C028E031E031832083EF50FF4F2FEF44
:104C500020830097D9F1DC01ED91FC910280F38172
:104C6000E02DDF91CF911F910F9109948881998157
:104C7000B4E08B309B0751F1009739F0DC01ED91E6
:104C8000FC910680F781E02D09958BE094E011C03E
:104C900088819981B4E08E309B07C1F0009739F08C
:104CA000DC01ED91FC910480F581E02D09958EE009
:104CB00094E0998388830AC0B1E0E830FB0731F0C3
:104CC00088E091E099838883CF01C3CFDF91CF91B2
:104CD0001F910F9108950F931F93CF93DF93CDB73B
:104CE000DEB764970FB6F894DEBF0FBECDBF81E08C
:104CF00089838A8300E010E01C830B83CE01019638
:104D00000E94EE250F5F1F4F00311105A9F7649631
:104D10000FB6F894DEBF0FBECDBFDF91CF911F91CC
:104D20000F9108957F936F9327E632E03F932F937F
:104D30008F9385E48F930E9479170F900F900F90B7
:104D40000F900F900F9008959C016130710539F418
:104D50002250310981E02230310578F00DC06230F7
:104D6000710529F481E02130310531F406C0672B4B
:104D700019F481E0232B09F080E008950B960E943E
:104D8000220891E0811101C090E0892F08950F93CE
:104D90001F93CF93DF9300D0CDB7DEB78C01FC011A
:104DA0008081918169837A830E94BE2669817A819C
:104DB000F801808191810E945808F80180819181D9
:104DC00064E40B960F900F90DF91CF911F910F919C
:104DD0000C9446130F931F93CF93DF9300D01F9231
:104DE000CDB7DEB78C01FC01808191814B83698353
:104DF0007A830E94BE2669817A81F801808191813F
:104E00000E945808F801808191814B81642F0B9694
:104E10000F900F900F90DF91CF911F910F910C94F5
:104E200046132F923F924F925F926F927F928F9292
:104E30009F92AF92BF92CF92DF92EF92FF920F9329
:104E40001F93CF93DF9300D000D0CDB7DEB78C0196
:104E50005B015C834B8382E089834A01E9E08E0E2B
:104E6000911C2CE8322E4EEBB501C8010E94EA26B7
:104E7000CB80DC807601F80160807180FBE06F0EF2
:104E8000711C98E0492E512C21E0212CC3012A836A
:104E90000E94CC072A818111222A220F81E0481A20
:104EA0005108A1F7F70121927F01E815F90519F7DB
:104EB000F801808191810E94BE2629E090E0215076
:104EC000A1F0F60141916F0138E0542F5927892F45
:104ED00090E0BC0175956795962F50FF02C0932D09
:104EE00096274695315089F7EACFEB81FC81808582
:104EF000981741F0F981F13019F0F1E0F983B3CF5F
:104F000080E001C081E00F900F900F900F90DF9133
:104F1000CF911F910F91FF90EF90DF90CF90BF90B6
:104F2000AF909F908F907F906F905F904F903F9049
:104F30002F900895CF93DF93CDB7DEB729970FB6A3
:104F4000F894DEBF0FBECDBFAE014F5F5F4F0E9432
:104F50001127882351F08B81882339F08A8190E0D2
:104F6000982F88272981822B02C080E090E829961B
:104F70000FB6F894DEBF0FBECDBFDF91CF9108957D
:104F80000895AC019FEF9F5FFA01E90FF11D97FDB6
:104F9000FA952081222321F06213F5CF892F0895FD
:104FA0008FEF08950895CF93DF9390E0FC01EC5FBD
:104FB000FA4F2491FC01E051FB4F8491882361F169
:104FC00090E0880F991FFC01EA59F94FC591D491DF
:104FD000FC01E059F94FA591B491611109C09FB747
:104FE000F8948881209582238883EC912E230BC02E
:104FF000623061F49FB7F8943881822F80958323C3
:105000008883EC912E2B2C939FBF06C08FB7F8940A
:10501000E8812E2B28838FBFDF91CF910895EF92E7
:10502000FF920F931F93CF93DF938C01FC01848138
:1050300095818130910519F0029761F151C084E0AA
:1050400090E06230710589F40E948E31EC01F80124
:10505000F780168188EE91E09983888362E0812F42
:105060000E94D327FA821B833DC00E948E31EC013F
:10507000F8018781168122EF31E0398328838A8302
:105080001B8360E0CE010E94B12461E0812F0E9469
:10509000D32728C0F8018681803119F0E12CF12C4A
:1050A00004C086EFE82E83E0F82E80E190E00E94B5
:1050B0008E31EC01F801918924E431E039832883B1
:1050C000FB82EA821D821C8281E08F87DE011696B8
:1050D000399688E001900D928A95E1F79E8702C08B
:1050E000C0E0D0E0CE01DF91CF911F910F91FF90F2
:1050F000EF9008958F929F92AF92BF92CF92DF92DE
:10510000EF92FF926B017C010E942E254B015C0106
:10511000C114D104E104F104F1F00E942E25DC0158
:10512000CB0188199909AA09BB09883E9340A105BA
:10513000B10570F381E0C81AD108E108F10828EE42
:10514000820E23E0921EA11CB11CC114D104E10403
:10515000F104F1F2E2CFFF90EF90DF90CF90BF909B
:10516000AF909F908F9008952FB7F8946091B904F5
:105170007091BA048091BB049091BC042FBF089534
:105180001F93CF93DF93EC01162F68878E819F8149
:10519000DC01ED91FC910190F081E02D0995112346
:1051A00051F00E94B42828EE33E040E050E00E9425
:1051B00094363B832A83DF91CF911F9108951F92EC
:1051C0000F920FB60F9211242F933F938F939F93BB
:1051D000AF93BF938091B9049091BA04A091BB049E
:1051E000B091BC043091B80423E0230F2D3720F494
:1051F0000196A11DB11D05C026E8230F0296A11D31
:10520000B11D2093B8048093B9049093BA04A0937D
:10521000BB04B093BC048091BD049091BE04A091E6
:10522000BF04B091C0040196A11DB11D8093BD04BF
:105230009093BE04A093BF04B093C004BF91AF91FC
:105240009F918F913F912F910F900FBE0F901F90C4
:105250001895DC01ED91FC910190F081E02D09940D
:105260006115710579F0FB0101900020E9F7319794
:10527000AF01461B570BDC01ED91FC910280F381DD
:10528000E02D099480E090E00895FC01848DDF0119
:10529000A80FB11DA35ABF4F2C91848D90E00196A9
:1052A0008F739927848FA689B7892C93A089B18998
:1052B0008C9180648C93938D848D981306C00288A2
:1052C000F389E02D80818F7D80830895EF92FF9296
:1052D0000F931F93CF93DF93EC0181E0888F9B8D19
:1052E0008C8D981305C0E889F989808185FD24C0DB
:1052F000F62E0B8D10E00F5F1F4F0F731127E02E5E
:105300008C8DE8120CC00FB607FCFACFE889F9893A
:10531000808185FFF5CFCE010E944529F1CF8B8D8D
:10532000FE01E80FF11DE35AFF4FF0820B8FEA896F
:10533000FB898081806207C0EE89FF896083E889EC
:10534000F98980818064808381E090E0DF91CF9152
:105350001F910F91FF90EF900895CF93DF93EC0191
:10536000888D8823C9F0EA89FB89808185FD05C085
:10537000A889B9898C9186FD0FC00FB607FCF5CFBF
:10538000808185FFF2CFA889B9898C9185FFEDCF07
:10539000CE010E944529E7CFDF91CF91089508956E
:1053A0001F920F920FB60F9211240F900FBE0F9005
:1053B0001F901895CDB7DEB7E397DEBFCDBF7894C9
:1053C00084B5826084BD84B5816084BD85B582600A
:1053D00085BD85B5816085BD80916E0081608093BB
:1053E0006E00109281008091810082608093810024
:1053F0008091810081608093810080918000816034
:10540000809380008091B10084608093B10080918E
:10541000B00081608093B00080917A0084608093B6
:105420007A0080917A00826080937A0080917A007D
:10543000816080937A0080917A00806880937A00FE
:105440001092C10061E083E00E94D32781E2809343
:10545000B0008BE08093B1008DE78093B3008EE3C2
:105460008093B4008091B00080628093B00064EFBC
:1054700071E080E090E00E947A288091B0008F7DFA
:105480008093B00064EF71E080E090E00E947A28A1
:105490008091B00080628093B00064EF71E080E0A2
:1054A00090E00E947A288091B0008F7D8093B000B8
:1054B0008FEF80936A0212E010930C030E94411652
:1054C0001092200410921F0484E00E94D8150E94BC
:1054D0001C1362E088E00E94D32762E089E00E940A
:1054E000D32762E087E00E94D3278091680085601F
:1054F0008093680080916B00836080936B00809143
:105500006D00806880936D00E0914603F091470341
:105510001083E0914603F09147031082E09142032B
:10552000F09143031082E0914403F091450380E140
:10553000808310924E03E0914A03F0914B0386E082
:105540008083E0914803F0914903808180618083EA
:10555000E0914803F0914903808188608083E09165
:105560004803F0914903808180688083E09148037B
:10557000F091490380818F7D80830E94170F0E94E4
:105580009B0F0E94B4286B017C010E94B4286C150B
:105590007D058E059F0519F40E94B514F6CF0E9473
:1055A000551A0E949F198CE692E022E1280F29AB40
:1055B000CE0101967C0174E1C72EC80E0E94B5147D
:1055C0000E94B4280091020110910301209104016E
:1055D00030910501DC01CB01801B910BA20BB30BB9
:1055E000883E9340A105B10508F483C00E94B42809
:1055F000609302017093030180930401909305016D
:105600000E94F10E8091AC04882309F419C48091A2
:10561000B6049091B7048330910509F411C4099739
:1056200009F40EC4E091A704F091A804EC57FF4FD1
:1056300080899189A289B389448555856685778556
:10564000481759076A077B070CF0BEC34489558980
:105650006689778984179507A607B7070CF4B4C342
:105660008D01A0909B04B0909C0448018A189B086F
:105670007090B2046090B3040115F0E81F0709F0C0
:10568000A6C30E94B8218538934008F0BAC30E948F
:10569000560D0091B6041091B7040E9440221127C4
:1056A0008091B6049091B7040817190731F060E0B3
:1056B00070E080E090E00E94CF068091AD048437D6
:1056C00009F0C8C30E949F190E94BC1A0E94661666
:1056D0008091D303882329F085E10E94BE070E94B0
:1056E000411688E080931E0460E081E194E00E940E
:1056F000ED148CE191E064E0662E680E86E393E0A1
:105700000E94B025181619060CF05BC386E393E0DF
:105710000E948E25853509F47BC044F5833409F455
:1057200082C07CF48D3051F31CF48A3039F332C3DB
:10573000803221F3813409F02DC381E08093070486
:10574000DDCF8634D9F234F4853409F023C300E088
:1057500010E0BBC0823509F41AC3833509F01AC3BF
:105760000E94A3210E9415068EE064C08A3609F4C7
:10577000A1C08CF4833609F4A5C034F4813609F055
:1057800009C310920704BACF843609F4E2C0883600
:1057900009F4B8C1FFC2833709F44FC03CF58C3619
:1057A00009F44EC08E3609F0F5C21F9282E08F9345
:1057B0001F9283E78F931F921F921F9284E08F9313
:1057C00084E091E09F938F938CE091E09F938F937F
:1057D00083E191E09F938F930E9482060E940606C8
:1057E0000FB6F894DEBF0FBECDBF88CF8437A1F0CF
:1057F000863709F0CFC289E894E090930003809344
:10580000FF024BE060ED70E086E50E940E1276CF5D
:10581000ECE6F2E08FEF65C160E070E080E090E0E0
:105820000E94CF066BCF0E9499210E94551A0E94B8
:1058300049128DE00E94BE0761CF0E9415065ECF1F
:105840008CE40E94F8056BE586E393E00E94292929
:1058500042E2A42E44E0B42E10E05FEF852E50E02B
:10586000952E80911C04F701D5019E2F9E19981743
:1058700018F49D919193F9CFF701E80FF11D108273
:10588000FF92EF929F928F920E9482060F900F904C
:105890000F900F90133011F46DE501C06CE286E3B8
:1058A00093E00E9429291F5FF5E1AF0EB11C14306F
:1058B000C1F66AC260E070E087E19BE00E94ED10F3
:1058C0000E9415060E94491219CF60E0C8010E948B
:1058D00019360F5F1F4F011524E01207B1F70E9420
:1058E0006B260E9499210E94A32136E0A32EB12CA1
:1058F00047E250E0B5018EE093E00E940936850151
:10590000085D1F4F8AE6A80EB11C49E050E0B801BF
:105910008DEA94E00E9409368091AE049091AF0424
:105920009093AA048093A904055F1F4F0A151B05D5
:1059300061F70E3A1140E1F664E080E090E00E94E9
:1059400019360E94170F8FE00E94BE070E949B0F1E
:10595000D5CE84E60E94F8056BE586E393E00E94CD
:1059600029298FEF8AA78BA78CA71DA6BE01665D8C
:105970007F4F8BEE96E10E94ED108AA58E3F61F479
:105980008CA587FDFCC161E0811101C060E086E764
:1059900094E00E94C028F3C181E080936B02712CD7
:1059A000DE0156965D012CEF822E20E0922E672DAF
:1059B000C7010E945419882309F4E1C18AA58F3FC9
:1059C00049F48DA581110FC08B819C81892B09F42D
:1059D00086C009C0082E000C990B272D30E08217D5
:1059E000930709F07CC01E8A4B805C80C20101973E
:1059F0008C30910508F06CC0FC01E25BFE4F008129
:105A000010E00115110509F463C0C7010E94D625F5
:105A1000FC01892B09F45CC02CA527FD11C00330C3
:105A2000110571F480819181DC01ED91FC9161E0BF
:105A3000211101C060E00190F081E02D099548C07E
:105A40008BA5813009F044C00230110549F48081F2
:105A50009181DC01ED91FC910190F081E02D29C054
:105A600001301105D9F4A081B181E6E04E16510450
:105A700019F08D919C9101C0CD01DC01ED91FC915B
:105A80000084F185E02D0995AC01990F660B770B29
:105A900009E023E0C5010E9415201AC0033011055A
:105AA000B9F480819181DC01ED91FC910280F38158
:105AB000E02D09951F928F939F928F92BF92AF9284
:105AC0000E9424330F900F900F900F900F900F9023
:105AD00026E333E0A501B701872D0E941E1B7394B6
